:100000000C9446000C9450000C9450000C9450003A
:100010000C9450000C9450000C9450000C94500020
:100020000C9450000C9450000C9450000C94500010
:100030000C9450000C9450000C9450000C94500000
:100040000C9450000C9450000C9450000C945000F0
:100050000C9450000C9450000C9450000C945000E0
:100060000C9450000C9450000C9450000C945000D0
:100070000C9450000C9450000C9450000C945000C0
:100080000C9450000C9450000C94500011241FBE8E
:10009000CFEFD0E4DEBFCDBF0E946C000C94870090
:1000A0000C940000CF93DF931F92CDB7DEB7898306
:1000B00080EC90E0FC018081882F90E0807299278D
:1000C000892BB1F386EC90E02981FC0120830000AC
:1000D0000F90DF91CF910895CF93DF93CDB7DEB727
:1000E00085EC90E0FC01108284EC90E027E6FC01B6
:1000F000208381EC90E028E1FC01208382EC90E0F9
:1001000026E0FC01208381E60E945200FCCFF89497
:02011000FFCF1F
:00000001FF
